S0120000446174616C6F676765722E7372656318
S1130000A02B00203D61000039610000396100002F
S113001000000000000000000000000000000000DC
S11300200000000000000000000000003961000032
S113003000000000000000003961000001620000BF
S11300403961000039610000396100003961000044
S11300503961000039610000396100003961000034
S113006039610000BD510000CD510000DD51000098
S1130070ED5100000000000000000000DD0D000054
S11300803961000039610000396100003961000004
S113009039610000396100003961000039610000F4
S11300A039610000396100003961000039610000E4
S11300B039610000396100003961000010B5064C57
S11300C02378002B07D1054B002B02D0044800E015
S11300D000BF0123237010BD980000200000000021
S11300E0C4A20000084B10B5002B03D007490848F0
S11300F000E000BF07480368002B00D110BD064B89
S1130100002BFBD09847F9E7000000009C0000207A
S1130110C4A20000C4A200000000000010B5074BF8
S113012019682223CB5C5A1E9341DBB24A7C0968CE
S113013003480078034CA04710BDC046B40000201B
S1130140BD0000207155000010B50423002801D023
S1130150180010BD394B197ACA090023002A05D1A9
S11301604B09DB018222D20594466344186A1F229C
S11301700A4001239340184210D0304B9B7B012B43
S113018004D004222D4B9A730223E1E72C4B1B78F5
S1130190002BF6D000222B4B1A60F2E7274B9A7BF8
S11301A0042A05D0012A24D00323032AD0D036E020
S11301B0033A9A73234B1B68002B08D00022204B70
S11301C01A70FA208000204B98470223C0E70124CC
S11301D01B4B1C7000201D4B9847FA2149011C4BF6
S11301E09847FA239B005843164B58601C6002231F
S11301F0AEE7134B1B78002B07D0124B1A6802236F
S1130200D203A5D500220F4B1A600C4B02229A731D
S1130210104A1A6001225A74002121329954002292
S11302200D4B1A70054C0D4B1C600D4B9847A37B6E
S1130230023B5A425341DBB28AE7C0460000002029
S1130240BC00002010E000E03D520000055F00000B
S1130250FD640000801A0600BD000020B4000020E8
S11302601D010000F8B50B4D0B4F0C4E00210C483E
S1130270B847041E0BD0B047FF23034207D0013D0B
S1130280002DF3D107490848084B98470024200063
S1130290F8BDC046410D0300B5570000CD5700001E
S11302A00D1B0000E0950000789700009581000088
S11302B010B582B00C4B1B68998909040123009383
S11302C010220A480A4CA047002801D102B010BDF0
S11302D0054B186812300121064B98470028F5D0C9
S11302E0054B9847F2E7C046B40000200911080006
S11302F02556000051580000DD58000010B5044B8D
S11303001B78002B00D010BD0020024B9847FAE761
S1130310BD000020C555000010B50422034B9A739C
S1130320FB32034B1A70034B984710BD00000020AA
S1130330BD00002069540000F0B5C64600B588B081
S1130340B04B98470400012806D0AF4B98472000D3
S113035008B004BC9046F0BDAC4B1B680122DA73B4
S113036000221A749A81AA48AA4B9847AA4B984724
S1130370002188204001A94B984700280AD1A848A9
S1130380A44B9847A14B1B6803229A739E4B984732
S11303900324DCE7D5214900A248A04B9847002656
S11303A0002828D1994B1B68DB7BDB0700D531E2A1
S11303B0964B1B68DA7B09231340012B0FD1802154
S11303C089009948954B98470028D8D08F4B1B68D3
S11303D0DB7BDB0703D5954B98470028CFD0944BA4
S11303E0984794488B4B9847884B1B6800229A7314
S11303F0854B9847ABE7904B9847431C00D107E2E5
S113040003051B0DD5225200934205D002008B49EF
S11304108B48804B9847B2E78A487E4B9847012621
S1130420C0E7894989487B4B98478948794B984765
S1130430764B1B680222DA73002188204001774B37
S1130440984700289BD0834D744F7B4E00218248EF
S1130450B847002800D196E0B047C30700D499E01C
S1130460013DF3D27D497E486A4B984787E7764938
S11304707C48684B9847D8E700217B48674B9847EE
S113048000287BD06C4B9847430005D55F4B1A6816
S1130490D37B08210B43D373002174485F4B9847E7
S11304A0002800D16BE7594B1B68DB7BDA0700D4CB
S11304B0D1E16F4B9847002800D160E7534B1A688D
S11304C0537D0721194089006A480858FA21890098
S11304D041435B061B0F9B0067481B584B4313604B
S11304E0937C9B0900D063E1917E8911537E9B002C
S11304F0107E800203430B43107FC011D17E49005C
S113050008431B051B0D01330721014002318B40B9
S1130510D07D0F2101408B409B0A536091890904CF
S113052056483E4B9847002800D128E70123009302
S1130530082200215248534DA847002800D11EE745
S1130540012106A8504B9847002800D117E74F4BCC
S11305509847002800D112E706AB1B780F221340FE
S1130560012B00D140E1002B00D130E1022B00D15E
S11305703FE1264B1B6810221A742CE1324944488F
S1130580244B984751E7334A521B34494148214B85
S11305909847F4E600213448204B9847002825D09A
S11305A0254B9847C023DB0518408023DB05984280
S11305B021D000212D48194B9847002800D1DEE6B0
S11305C02B4B9847002800D1D9E6104B1A68937C2E
S11305D09B061B0F022B00D1CAE05DD9032B00D16F
S11305E0C9E0042B5AD14023137459E01B4928480D
S11305F0084B9847C3E6054B1A68D17B08230B4385
S1130600D373D6E749010000FD020000B4000020C6
S11306103096000095810000ED550000B5570000AC
S11306202C9700000855000010110000650200001E
S11306301D01000064970000CD570000D89500000C
S11306404896000070960000C8950000809600004F
S113065050970000EE1B000001110000B895000047
S113066010970000949600003A0500003B1100002A
S1130670B102000094970000B09700003711000009
S1130680331108002556000051580000DD580000C1
S1130690D8960000EC960000012B66D01223137448
S11306A0537D5906090F8900072003409B006D48BC
S11306B01858FA239B0043436B4809584B43136073
S11306C0917E8911537E9B00107E800203430B436D
S11306D01B051B0D65498B420FD0107FC011D17EC5
S11306E04900014301330720014002318B40D17D91
S11306F0083001408B409B0A5360137C3F2B47D941
S1130700002100910123802292005948594DA847A5
S1130710002800D133E60025574E05A8B04700282D
S113072000D12CE60135ADB2322DF6D1534B196808
S11307308A7E92114B7E9B00097E89020B431343F0
S11307401B051B0D494A934220D14B4E06A8B047C6
S1130750002800D113E60135ADB2352DF6D9474B4B
S11307601A68069B5B08536010E01423137497E720
S11307702223137494E73023137491E706A83E4BA5
S11307809847002800D1FAE50135ADB27F2DF5D99F
S1130790802189003A483B4B9847002800D1EEE578
S11307A0394B9847002800D1E9E5384B984718E6BB
S11307B0D07E937E1B02517E09040B4303439B02AC
S11307C05B08802189008C4663445360A6E62B4B6A
S11307D01B6810221A74294B1B68DB7B0922134007
S11307E0012B00D0F2E5EAE5244B1B681A221A74A7
S11307F0F1E706AB9B78DB09012B04D11F4B1B6887
S113080030221A74E7E71D4B1B6820221A74E2E7B2
S11308100026C7E5731E9E41B30703931C4D194F71
S1130820B8461C4E00211C48B847002800D1F8E502
S113083003991A48C047002800D118E6B047C307F7
S113084000D419E6013D002DECD1020014491548ED
S1130850154B9847E9E509221340012B00D0BEE56A
S1130860ADE5C04694970000F0950000FF0F00002E
S11308700811080025560000D9570000B4000020D4
S113088010110000B5570000650200001D010000B2
S1130890EF1B0000CD5700003711000029110000A4
S11308A0C8950000A89600009581000010B5064B7D
S11308B098470023002801D0180010BD034B984727
S11308C0034B1B68DB7BF7E749010000FD020000D6
S11308D0B400002010B5064B98470023002801D02F
S11308E0180010BD034B9847034B1B685B68F7E780
S11308F049010000FD020000B40000200020704700
S113090070B582B00E001500164B9847041E02D035
S1130910200002B070BD144B9847002817D0012D59
S113092019D91248124B1B68DB7B1B0700D47602D3
S1130930012300932B008022920031000D4EB0471A
S113094000280AD00C4B1D800C4B1D80E0E70C4B9B
S113095098470534DCE70B48E4E7094B984705243E
S1130960D6E7C046490100006502000012111000DC
S1130970B400002025560000B8000020BA00002072
S1130980FD0200001111080010B50C00074B984738
S1130990002804D10022064B1A80053010BD044AF9
S11309A013881C1B14800020F8E7C046515800002F
S11309B0B800002010B50400144B98470523002804
S11309C001D1180010BD002C10D00022104B1A8049
S11309D0104B1B88012B0FD000210F480F4B984759
S11309E000280DD00E4B98470023EAE7084B1A88DD
S11309F00023002AECD0E4E7094B98470023E0E702
S1130A0000210548054B9847ECE7C046DD58000037
S1130A10B8000020BA0000200C310000B5570000D7
S1130A20FD02000070B582B00E001500114B98470E
S1130A30041E16D1012D17D90F48104B1B68DB7B00
S1130A401B0700D47602012300932B00802292001E
S1130A5031000B4EB047002808D00A4B1D800A4BCA
S1130A601D80200002B070BD0848E6E7084B984797
S1130A700524F6E74901000019911000B400002094
S1130A8025560000B8000020BA0000201891080084
S1130A90FD02000010B50C00074B9847002804D154
S1130AA00022064B1A80053010BD044A13881C1B13
S1130AB014800020F8E7C046E1580000B800002088
S1130AC010B504000E4B98470523002801D11800E7
S1130AD010BD002C0AD000220A4B1A800A4B1B8836
S1130AE0012B09D0094B98470023F0E7054B1A88DE
S1130AF00023002AF2D0EAE7044B98470023E6E7F4
S1130B0061590000B8000020BA000020FD02000076
S1130B1010B504000F4B9847012819D0002803D0C2
S1130B20022810D0012010BD0B4B1B5D0220002BAE
S1130B30F9D12000094B9847030003201840434291
S1130B4058414000EFE70022034B1A550220EAE720
S1130B500320E8E739030000C0000020AD080000CE
S1130B6010B50020014B984710BDC046110B000082
S1130B7010B50120014B984710BDC046110B000071
S1130B8070B504000D00044B9847400001382860FC
S1130B902000024B984770BDD5080000110B0000DF
S1130BA010B501000020014B984710BD810B0000D7
S1130BB010B501000120014B984710BD810B0000C6
S1130BC0014B187001207047C0000020014B587081
S1130BD001207047C000002010B50020014B984749
S1130BE010BDC046FD08000010B50120014B984718
S1130BF010BDC046FD080000012070470120704769
S1130C0010B5140001220C4B9847002804D0023878
S1130C1043425841013010BD01212000074B984741
S1130C2003000120002BF6D10020054B9847431EFA
S1130C309841C0B2EFE7C0460109000089090000ED
S1130C40B509000010B50A0001000020014B9847C7
S1130C5010BDC046010C000010B50A0001000120BF
S1130C60014B984710BDC046010C000010B514009C
S1130C7001220C4B9847002804D0023843425841C3
S1130C80013010BD01212000074B984703000120CB
S1130C90002BF6D10020054B9847431E9841C0B263
S1130CA0EFE7C046250A0000950A0000C10A0000CB
S1130CB010B50A0001000020014B984710BDC04642
S1130CC06D0C000010B50A0001000120014B98478B
S1130CD010BDC0466D0C0000F0B5C64600B58CB022
S1130CE00BAE002474700125B570F4700623984689
S1130CF03370310018202D4FB8474346337031000C
S1130D001920B84702AA0823137054709470D57040
S1130D10157155719571D4711472093B5381147313
S1130D2054739473D4731474D5741575204B9361F0
S1130D30157754779577D4772023D4540133D4543A
S1130D4054749574123B53721A4B1C601A4E1B4C0C
S1130D50310020001A4B98471A4930001A4B984723
S1130D6020001A4B984780221202194B1A602268FD
S1130D70516DC0235B050B4353658023DB05009352
S1130D80144B019380231B06019300226946200023
S1130D90114B984723685A6D15435D655A6D1021B0
S1130DA00A435A650CB004BC9046F0BDDD600000F7
S1130DB0FFFFFF1F140B0020001C0042100B00203B
S1130DC0B93E000020A10700B54100000542000023
S1130DD000E100E0FFFFFF9F1D420000F0B5CE469A
S1130DE0474680B585B0874B1B681A6D0392039AFA
S1130DF012036ED5802212031A6500230293029B0C
S1130E000F2B66D87F4B994698467F4F3AE09C2338
S1130E1041460968CB58203A012191400B405A1EA3
S1130E209341DBB23BE0774A1168203B01229A40B0
S1130E3013009C228B5040E07448754B9847002364
S1130E400293714B5B681B031B0F029A934210D9E8
S1130E506D4C704D704E029BE318197A2800B04710
S1130E60029B0133029363681B031B0F029A934294
S1130E70F1D86A48664B9847029B01330293029B60
S1130E800F2B26D8029A1F2AC1D8982349460968ED
S1130E90CB58012191400B405A1E9341DBB2002BE9
S1130EA0EAD0029B0193029B1F2BBCD8554A1168C0
S1130EB001229A40130098228B50019A390051481C
S1130EC0574B98473B685B00B6D55648504B9847FC
S1130ED0B5E7039BDB0715D4039BDB0652D4039BC6
S1130EE01B0102D4039BDB0007D5464B1B68C022C1
S1130EF052051A654C48464B984705B00CBC9046C1
S1130F009946F0BD3F4D2B6801221A65474C226873
S1130F1047492800474B9847226829683F231340D4
S1130F20A8228B502368013323602368102B25D01B
S1130F30002302933E4B5B681B031B0F029A9342F0
S1130F4018D93B493C4A30480B68DB005B0D136001
S1130F50029B029C0C19247AD3181C7243689BB21E
S1130F605360029B013302934B681B031B0F029CCB
S1130F70A342E9D80122314B1A60ADE700222B4B82
S1130F801A60D5E71F4D2B6810221A652C4C226875
S1130F902C4928002C4B9847226829683F2313408A
S1130FA0B8228B502368013323602368102B25D08B
S1130FB000230293234B5B681B031B0F029A93428B
S1130FC018D920491C4A10480B68DB00DB08136061
S1130FD0029B029C0C19247AD3181C7243689BB29E
S1130FE05360029B013302934B681B031B0F029C4B
S1130FF0A342E9D80122114B1A6070E70022104B7A
S11310001A60D5E7100B0020C800002034980000B7
S11310108982000078980000958100008098000083
S113102065420000F097000084980000F80000205A
S1131030D8000020B5420000180B0020140B00203B
S1131040C4000020E80000200543000010B58EB065
S113105001AA642301931E4B53600023936013730E
S1131060137680218903116101214942918225313E
S1131070535493620831535401315354013153543E
S1131080D7331386134BD382134BD361134B1362A1
S1131090134C14492000144B984722680721D36944
S11310A01942FCD1136802210B4313600C4BDC88FA
S11310B000231020518B014204D10133A342F9D300
S11310C0102353830120094B98470EB010BDC0462E
S11310D0480D00001027000002001600020017004F
S11310E0280B002000100042A51400003D5200000F
S11310F0F8B505000E00064C064F29002000B8473D
S1131100002803D0013E731C002BF6DCF8BDC0465A
S1131110280B00207D1A0000F8B505000E00064CCF
S1131120064F29002000B847002803D0013E731C55
S1131130002BF6DCF8BDC046280B0020911A0000F5
S113114030B59FB03222002111A8704DA8470EACD3
S11311500A2200212000A8470BA868230380673BCC
S1131160438044600023037243728372FA2189002E
S1131170674B9847002804D06648674B98471FB0D0
S113118030BD0BA811AB436007234380FA218900CB
S1131190624B984700287AD10C9B1B78DB097AD1E3
S11311A05F4B1A680721D3691942FCD18323137555
S11311B01376136802218B4313600C998C7909A868
S11311C023099A009A1852000F252C40FA23DB00B9
S11311D09C4664441219C2804B791A09940012196E
S11311E052002B40D21842710A7913099C001B1932
S11311F05B0015405B1903718A78530674D4930617
S11312009B0F98001B185B000F2002409B1809AA33
S113121093704D7809AC2B099A009A1852000F204C
S11312200540521962700A7853065B0F99005B18E7
S11312305B0010401B18237004AAB0231B01138009
S113124000239370FA23DB00938001239371D370FE
S113125006AB210021C921C306231374314D324941
S11312602800324B98472800314B9847210028002A
S1131270304B9847E388227961792078029060782E
S11312800190A07800902C482C4CA04777E72C487C
S1131290214B984773E72B4A2B492C48274B9847F7
S11312A00BA8082343800EAC446000232370213331
S11312B063701833A370213BE370123B2371023B2C
S11312C063710133A3711433E371FA218900104B64
S11312D098471F48104B98473F2169446278227011
S11312E001348C42FAD15BE75009012318400C24E5
S11312F06043140923409C001B195B00C0180F2392
S11313001A40821809AB9A7083E7C04683810000B3
S113131019110000C898000089820000F110000033
S1131320280B0020740B002000240040B14400006E
S113133055430000354400004499000095810000A5
S1131340E4980000FC98000008990000149900003B
S11313502C99000070B582B005000E0000226B4687
S1131360DA80064C6B46991D2800A0470028F9D165
S11313706B4606331B88337002B070BD011F00003A
S113138070B505008CB2034E21002800B047002838
S1131390FAD170BDD51E0000F0B593B08023DB05F3
S11313A0009300230193FF2269460A818B72CB725A
S11313B001242C228C5401328C5401328B5401327E
S11313C08B540C9305328B5401328B5405930022B9
S11313D00B82CA7607930B844B840A762423CA545F
S11313E04A7613238B761333CA54013BCA54E12340
S11313F05B020A93C4239B03039301235B420E9372
S11314000F93174B1093174B1193174D174B1D60E8
S1131410174A184B1A60184A184B1A606A4618493A
S11314202800184B9847184F3B6898680021174EBE
S1131430B0473B6858680021B0472E683000144B11
S113144098471F2318408440124B1C602A68D369B4
S1131450002BFCD1336802221343336013B0F0BD78
S11314600300060003000700340B0020700B00206B
S1131470811300006C0B002055130000680B002042
S113148000040042391B0000300000209D8200004F
S11314909951000000E100E001680722CB691A427B
S11314A0FCD17047F0B5D6464F464646C0B58AB023
S11314B006000F00140031600800974B9847974AC4
S11314C0D169451C0123AB400B43D36109A9237B9C
S11314D00B701330C5B22800914B98472800914BEC
S11314E09847207B0021904B98473B681C209B0722
S11314F005D50AB01CBC90469946A246F0BD3B688F
S11315001738DB07F5D414233B603368984618007A
S1131510814B98470500802308AA13700023537059
S1131520012208A98A70CB70E069276A002800D1DB
S1131530AEE008AB1870022308AA5370000CC0B2C6
S113154011007A4B9847002F00D1A6E008AB1F701A
S1131550022308AA53703F0CF8B21100734B98474A
S1131560A38AF380E38A3381237E8022002B04D173
S11315706F4B9B789B07DB0FDA01A16823690B4350
S113158013432422A25C002A02D08022D2051343F2
S1131590A26A13432C22A25C002A03D18022920463
S11315A0914202D18022120513432D22A25C002A0B
S11315B002D08022120413432E22A25C002A02D0FD
S11315C08022D203134342461268134342461360F7
S11315D080235B0053601335E8B2564B984707905D
S11315E0FA239B0022685A43914663689A46524DF7
S11315F0A847009001914B465800A84702900391D8
S1131600208EA847049005914C4F4D4A4D4B0098AD
S11316100199B84702000B0004980599B8474A4E4F
S113162000224A4BB047049005914846A84702005F
S11316300B0004980599B84702000B00444D00982C
S11316400199A847029A039BB0470022414BA8473F
S1131650029A039B404DA847404B984705008023BE
S11316609B04A2689A421ED003004020FF2D00D99B
S11316703FE700240020FF251D40240625430004E5
S1131680FF231B04184005434346DD60002030E778
S113169000214046324B98474BE701214046304BEE
S11316A09847070052E7FA26B60053465E4300986F
S11316B0019902000B00244CA047009001913000D6
S11316C01D4B98470022274BB84702000B00009897
S11316D00199214CA04700221E4B1D4CA0471F4BD3
S11316E09847041E0CD0310007981F4B98470238C6
S11316F0001B2B00FF2D0CD8FF28BCD94020F8E696
S11317007100481E079B9C466044174B984701385C
S1131710EFE74020EDE6C0460D5100000008004010
S1131720E15F0000715F0000C14F0000DD60000058
S1131730002000410560000059800000C5740000CD
S113174095D626E80B2E113E3D680000000024408B
S1131750C57900000000F03F5D6E0000F17F0000DD
S11317600D50000000000840FD64000003681A7E6C
S1131770920707D502221A765B8B9B074120DB1761
S1131780184070475A8B520706D55968C0229202F6
S11317900A435A601820F4E70020F2E730B50268E3
S11317A0002301240225117E21420BD1117E2942FE
S11317B006D101339BB201899942F4D8122002E088
S11317C0002000E0002030BD10B50468626880236A
S11317D0DB02134363606162024B98470123237663
S11317E010BDC0469D170000F0B5DE4657464E4674
S11317F04546E0B583B00600894605684C882B68E9
S11318001B01DB0F9A464B7A002B2BD16B68584A8D
S113181013406B604B461B7A002B27D14B461B8829
S11318205B004A46527A92031343012213436B62CC
S11318303000504B984701905346002B03D04B4641
S11318405B88012B3BD06B68494A13406B60019B5A
S1131850002B3AD0019803B03CBC90469946A2466E
S1131860AB46F0BD897A444B9847CFE74B461B887B
S11318705B004A46527A92031343802212021343B6
S11318806B6230003B4B984701906B68384A1340B9
S11318906B600028DED13000384B98470190002857
S11318A0D8D14B461B881B0A782213435B004A4657
S11318B0527A920301210A4313436B62B8E76A68C0
S11318C08023DB0213436B60C1E730002B4B984746
S11318D001900028BED1013CA4B28046284B9B460F
S11318E015E0012C20D03000264B984743465F1C5E
S11318F0BFB22823EB5C4A46526841465354300039
S11319001C4B9847013CA4B2002815D1B8465C454D
S113191014D06B8B9B0627D5F37A002BE3D0534668
S1131920002BDED1002CDED16A688023DB02134356
S11319306B60013CA4B2EAE7B8460190B37A002B8D
S113194009D130000F4B98472823EA5C4B465B686B
S113195041465A547EE730000A4B98476A68C023D0
S11319609B0213436B60ECE74123019372E7C0468B
S1131970FFFFFBFF9D170000C91700006D17000053
S1131980FFFF000099140000F0B5DE4657464E46AE
S11319904546E0B583B006000F0005684C88324B1D
S11319A098477B7A002B1DD16B68304A13406B60DB
S11319B03B7A002B1BD03B885B007A7A920313435B
S11319C08022120213436B623000294B9847019026
S11319D0002813D0019803B03CBC90469946A24617
S11319E0AB46F0BDB97A3000224B9847DCE73B8820
S11319F05B007A7A920313436B62E5E730001E4B77
S1131A009847031E0190E5D1A0460024203399464F
S1131A10154B9B46164B9A46444515D06B8B4A464C
S1131A2013421DD03000D8477B681A5D2823EA543E
S1131A303000D047002806D16B8B01345B07EBD50F
S1131A401E23019300E00190B37A002BC2D0300032
S1131A50054B98476A68C0239B0213436B60B9E740
S1131A6041230193B6E7C04699140000FFFFFBFF32
S1131A709D170000C91700006D17000010B5012361
S1131A808372C372014B984710BDC046E91700002A
S1131A9010B5002383720133C372014B984710BD04
S1131AA089190000F0B5C64600B50C009046002820
S1131AB00FD1002A11DD8F18094E0A4D306821001C
S1131AC02B6898470134BC42F8D1404604BC904688
S1131AD0F0BD01235B429846F7E78046F5E7C04630
S1131AE0700B0020680B0020F0B5C64600B50E0050
S1131AF015000138022810D8002A11D000240C4BFC
S1131B0098460C4F43461868315D3B689847002857
S1131B1008DB0134A542F5D106E00124644203E068
S1131B20140001E001246442200004BC9046F0BD8E
S1131B30700B00206C0B0020F0B5DE4657464E4675
S1131B404546E0B591B005000C0016002960080078
S1131B50D14B9847020023680520DB0706D511B056
S1131B603CBC90469946A246AB46F0BD236817306C
S1131B709B07F4D4C949C869571C0123BB400343DC
S1131B80CB610FA93527F35D0B701332D3B20293E7
S1131B901800C34B98470298C24B9847F05D002148
S1131BA0C14B9847F37A6B712C23F35CAB712D23F3
S1131BB0F35CEB71F37E2B722423F35C6B722B6862
S1131BC002931800B44B9847133000220E2306A941
S1131BD08C4663441A80338A98468023DB019845F7
S1131BE000D1C6E00ED9C023DB01984500D1BBE08B
S1131BF080231B02984500D048E103230693002369
S1131C00079308E080239B01984500D03EE1102310
S1131C1006930F3B079333680593F3680393736943
S1131C200493337E9B462E23F35C9A46736899464D
S1131C30002B00D1C9E080235B05994500D1ADE0BC
S1131C40737E002B02D0B37E029A93732A68029F9C
S1131C50D369002BFCD102970E3306A98C4663444A
S1131C601B88BB81059A039B1A43049B1A434B466A
S1131C701A4343461A435B461B021A4353465B0707
S1131C801A432F23F35C002B01D104331A43737ED0
S1131C909B022421715C49020B432621715C0902D9
S1131CA00B432C21715C49040B432D21715C090405
S1131CB00B43B07AF17A084318433389FF2B00D1E0
S1131CC0A7E0802149040A43184302998B689C4683
S1131CD0338C718C0B431F000721634619403B0072
S1131CE00B4302998B60F369002B02D06F490A40C1
S1131CF01A433423F35C002B03D16D4B9B789B0771
S1131D0001D580231A432968029FCB69002BFCD19B
S1131D1078602968CB69002BFCD13A603B68F022DB
S1131D2012051340E022D20493420AD0BB68072272
S1131D309343BB60BA682523F15C1E3B0B401343FD
S1131D40BB600EAB80221A7000225A70DA709A704F
S1131D50B36B0A93F36B0B93336C0C93736C029316
S1131D600D9300270AAE63E008230693073B07930D
S1131D7051E733680593F368039373690493337EDF
S1131D809B462E23F35C9A4673689946002B18D021
S1131D9080235B05994501D0002025E02F23F35CC7
S1131DA0002B00D04CE7B36A1F00C0B2414B9847E8
S1131DB001000E2206AB9C46624438003E4B984715
S1131DC012E008230693002307932F23F35C002BD0
S1131DD00ED0069B0093079B0E2206A98C466244F4
S1131DE0316BB06A354FB847002800D0B7E627E713
S1131DF0B36A1F00C0B22F4B98470100069B0093A3
S1131E00079B0E2206A88446624438002B4FB8472D
S1131E10EAE7F37E002B00D157E78023DB041A4363
S1131E2053E72000264B984707E00137042F0DD0D5
S1131E30F9B2BB0098590028F3D0431CF5D00EA981
S1131E400870000CC0B21F4B9847EEE70023EB600C
S1131E502B616B61AB61EB612B62AB626B62002245
S1131E60EB85AB853033EA540133EA540133EA5449
S1131E700133EA542868084B984704001249134B6D
S1131E809847A400124BE550002068E610230693FF
S1131E9000230793BFE6C0460D5100000008004030
S1131EA0E15F0000715F0000C14F0000FFFFFFF021
S1131EB00020004105600000034F00002D4F00008A
S1131EC00D500000DD600000711F0000595100003A
S1131ED0880B0020C2791C23002A01D11800704706
S1131EE0C28D92B2173B002AF8D10368DA69002A3E
S1131EF0FCD1198502211A7E0A42FCD00023EDE7A9
S1131F0082791C23002A01D118007047828D92B275
S1131F10173B002AF8D10268107E4007F4D5D36934
S1131F20002BFCD1538BDBB258061DD0980703D588
S1131F30022353831833E7E7580703D50423538355
S1131F401A33E1E7D80703D5012353831233DBE7C0
S1131F50D80603D5102353833233D5E79B0603D524
S1131F60202353832133CFE7138D0B800023CBE74A
S1131F70F8B58000644BC5582C68E369002BFCD18C
S1131F80237EA67D1E403023EB5C3122AF5C1F40D4
S1131F90F30722D5EB8D9BB2002B1CD0AA6A1378D1
S1131FA0DBB2511CA962697901290ED09BB2DB0511
S1131FB0DB0D2385EB8D013B9BB2EB85002B0CD114
S1131FC0013323750133A37507E0517809020B43EC
S1131FD00232AA62EBE701232375B30706D5022375
S1131FE0237500223133EA54FB071ED4730768D5E6
S1131FF0AB8D9BB2002B62D0638BDBB21A0718D473
S11320007F2213405A0601D540229343002B33D03C
S11320109A0711D51A223223EA54303B63837B0793
S11320204FD528006B6998474BE02800EB68984728
S1132030DCE777221340E5E75A0705D51E22322351
S1132040EA542E3B6383EAE7DA0705D513223223E9
S1132050EA54313B6383E2E7DA0605D542223223B0
S1132060EA54223B6383DAE79B06D8D54122322324
S1132070EA54123B6383D2E7238DDB05DB0DDAB22E
S1132080696A0A706A6A511C69626979012910D007
S1132090AB8D013B9BB2AB85002B12D1043323756E
S11320A000222E33EA54BB070BD528002B6998472E
S11320B007E01B0A53706B6A01336B62E8E7042381
S11320C02375F30604D5102323752376FB060ED45B
S11320D0B30604D52023237523763B070BD433079B
S11320E004D5082323752376BB0608D4F8BD28003D
S11320F0EB699847ECE72800AB699847EFE72B6A50
S113210028009847F2E7C046880B002010B5012349
S1132110012801D9180010BD4001024BC35898474B
S11321200300F7E77899000010B50123012801D9CD
S1132130180010BD4001034B181843680800984765
S11321400300F5E7789900000023012282425B41F5
S1132150D8B2704710B50123012801D9180010BD69
S11321604001034B1818C36898470300F6E7C046BC
S11321707899000010B50C000123012801D918003A
S113218010BD4001034B1818436911002000984703
S11321900300F4E77899000010B50C00012301282E
S11321A001D9180010BD4001034B181883691100B0
S11321B0200098470300F4E77899000010B5040064
S11321C00120022C0CD820000B4B98470300032855
S11321D007D12000084B984703000120032B00D1AE
S11321E010BD002B06D12000044B9847431E984194
S11321F08000F5E70120F3E70D21000055210000E0
S113220010B5054B9847031E04D00320022B00D0C1
S1132210023810BD0020FCE70D210000F0B5DE46B9
S11322204F464646C0B584B001900D0014001F000F
S1132230184B984706000120002E05D104B01CBCA1
S113224090469946A346F0BD03A90198124B9847BE
S1132250B14632007A431219039B013373430420BD
S11322609A42EBD8002F11D0730298467B1C9B46F0
S113227001270A4E2A0021000198B047002807D1FF
S113228001374C4445445F45F4D1D7E70020D5E7F6
S11322900120D3E749210000292100007521000015
S11322A0F0B5DE464F464646C0B584B001900D00F9
S11322B014001F00184B984706000120002E05D17A
S11322C004B01CBC90469946A346F0BD03A90198EE
S11322D0124B9847B14632007A431219039B0133DB
S11322E0734304209A42EBD8002F11D0730298460E
S11322F07B1C9B4601270A4E2A0021000198B04707
S1132300002807D101374C4445445F45F4D1D7E751
S11323100020D5E70120D3E749210000292100004E
S11323209921000010B582B0140001290BD00029B6
S113233020D002290FD00420032902D101231360E5
S1132340002002B010BD01A90E4B9847019B013338
S113235023600020F5E70C4B9847431EDBB2012BAA
S113236004D9031FFB2201201342EAD10023237066
S11323700020E6E7054B9847002801D00320E0E75A
S11323800020DEE729210000492100000D21000082
S113239000B583B069460F480F4B98476B46587990
S11323A040051B791B0418436B469B78DB021843DA
S11323B06B465B785B0118436B461B785B081843DC
S11323C06B46DB88054A944663445B06184303B0B6
S11323D000BDC046740B00205544000044F8FFFFC4
S11323E003007F2811D9002911D1C72817D00D4A1D
S11323F0023201231188814204D001339BB202329C
S1132400802BF7D18033FF2003401800704700234E
S1132410FF28FAD880384000024BC35AF5E700235E
S1132420F0E7C046E8990000612814D00B4B043350
S113243001216222904207D0013102339A1E128890
S1132440002AF7D1030004E0031E02D04900044B24
S1132450CB5A180070470021F8E7C046E89A0000FC
S1132460C89C000010B5002A05D00023CC5CC454DD
S113247001339342FAD110BD020002398369023B51
S11324800020994203D290784143906A081870471B
S1132490020001000B3100204308C00103431078FF
S11324A01818C0B201328A42F6D1704710B500281C
S11324B010D002780923002A01D1180010BDC28867
S11324C08A42FAD14078044B98470323C007C017C7
S11324D00340F2E70923F0E70122000070B504008D
S11324E00A0001003031407801231F4DA84703231F
S11324F0002801D0180070BD1C4BE35C1B021C4A71
S1132500A25C1A431B4912B202238A42F2D16733F6
S1132510E35C1B066822A25C120413436622A25CDD
S113252013436722A25C120213431B021B0A124AC2
S1132530934216D08523E35C1B068422A25C12041A
S113254013438222A25C13438322A25C120213432C
S11325501B021B0A094A94466344581E8341DBB29A
S1132560C8E70023C6E7C0461D2200002F02000072
S11325702E02000055AAFFFF46415400BABEABFF2D
S1132580F0B5D6464F464646C0B5140002681378E7
S1132590303B092B02D855783A2D16D0CA4B1D680A
S11325A00D60002D00D1F1E02B78002B17D0687856
S11325B0C64B98470300C20711D40020002C09D051
S11325C05B0700D4E4E00A3004E0023202600B202E
S11325D0002BE3D01CBC90469946A246F0BD0023D4
S11325E02B706B700020BA4B984703000320DA0766
S11325F0F0D4002C02D007305B07EBD40021280074
S1132600B44B984703000024012800D199E0032B20
S113261000D1BFE00D20002BDCD13C33EA5C120278
S1132620013BEB5C1343802292001BB29342D1D155
S11326304723EB5C1B02BB3AFF3AAE5C1E430DD151
S11326405723EE5C3606013BEB5C1B041E4354230C
S1132650EB5C1E435523EB5C1B021E43EE614023DF
S1132660EA5CEA70531E0D20012BB3D83D23E95CCC
S1132670A9700029AED04B1E1942ABD14223EB5CAA
S11326801B023430285C1843804628810D204346C1
S11326901B079FD14423EB5C1B023630285C0343A9
S11326A00DD15333EB5C1B065220285C000403431A
S11326B05020285C03435120285C000203433F2040
S11326C0285C00023E27EF5D0743BA460D20002F29
S11326D000D17FE7724391464246170957444F445D
S11326E0BB4200D276E7D81B7B4B984703000D20F2
S11326F0002B00D16EE7794A9A429241524201324C
S113270077498B4248D80233AB61E719AF6254442E
S11327102C620D204146002900D15BE74C446C62D9
S1132720022A2CD15B006F498C4663445B0A0D205E
S11327309E4200D24EE701235B422B610023EB60F3
S1132740B6E0F233FF33EB5C0D20002B00D141E700
S1132750FA23FF33EC5C2406013BEB5C1B041C43B3
S1132760FB235B00EB5C1C43F823FF33EA5C12029F
S1132770144321002800574B9847030047E70321DF
S11327805943490801200340CB18CCE70C2021E72A
S113279000201FE701201DE70233AB61E719AF6298
S11327A05246A2182A620D204246002A00D011E7A0
S11327B05F22AA5C12065E21695C09040A435C215B
S11327C0695C0A435D21695C09020A436A629B00F1
S11327D0444A944663445B0A0D209E4200D2F9E6C3
S11327E001235B422B610023EB606B716133EB5C73
S11327F01B026022AA5C1A4312196A612900303153
S113280068780123384CA0470322002850D1374B65
S1132810EA5C1202364BEB5C134336491BB20322CB
S11328208B4245D13323EB5C1B062F32AA5C120486
S113283013433022AA5C13433122AA5C12021343CD
S11328402D4903228B4233D12C4BEB5C1B062C4AC3
S1132850AA5C1204134385229200AA5C1343294AFA
S1132860AA5C12021343284903228B4220D1274B2E
S1132870EB5C1B06264AAA5C1204134387229200CF
S1132880AA5C1343234AAA5C12021343EB60224B53
S1132890EB5C1B06214AAA5C1204134386229200B5
S11328A0AA5C13431E4AAA5C120213432B6103223F
S11328B02A701C4A138801339BB21380EB800020DA
S11328C0E862287186E6C046FC0000200122000070
S11328D0BD210000DD240000FD640000F50F0000B0
S11328E0F5FF0000FF0100001D2200002F02000080
S11328F02E02000055AAFFFF525261411702000048
S11329001602000015020000727241611F020000ED
S11329101E0200001D0200001B0200001A0200003B
S11329201902000000010020F8B5DE4657464E4665
S11329304546E0B583460D000E0009360369002BB9
S113294062D04469237B98462378202B1FD0112220
S1132950914689443100002208274046384008E067
S1132960E5230131B3540132494511D0A35C202B36
S11329700ED0052BF4D00028F3D041277F42BA466D
S11329809A445746192FECD82033DBB2E9E73100DB
S1132990237A202B20D04A1C2E230B70237A202B41
S11329A05ED02700093704318C461021404601408F
S11329B009E0561C137066450FD001377B1E1B7847
S11329C0202B0AD032000029F3D01E00413E192EDC
S11329D0EFD82033DBB2ECE70E00E37A2B72E37F0F
S11329E01B06A27F12041343227F1343627F120249
S11329F013432B60627E1202237E1343AB80E27D7D
S1132A001202A37D1343EB8000233370AF69002FC0
S1132A102BD0EB69002B28D000245B461B69002BCC
S1132A2021D05B461A8C174B9A421BD05B46DB695C
S1132A309846188800281ED03E00134B9946002162
S1132A40C847002819D0EB69013BA34217D90134C8
S1132A50307063004246D05A01360028EFD102E0BC
S1132A601600BAE7002400233B553CBC9046994627
S1132A70A246AB46F8BD0024F5E70024F3E70024A2
S1132A80F1E7C046FFFF0000E1230000F0B5CE46A9
S1132A9000B582B004000F00C56A8D423FD00379AF
S1132AA0002B07D10023002F2CD1180002B004BC46
S1132AB09146F0BD30239C468444634661460193AD
S1132AC0407801232A00174EB04701230028ECD197
S1132AD000232371236AE269944663449D42E1D250
S1132AE0E678012EDED90F4B9946E3699C4665448E
S1132AF0607801232A000199C847013EF6B2012EED
S1132B00F3D1CFE721003031607801333A00064D2C
S1132B10A84701230028C8D1E7620023C5E70023A2
S1132B20C3E7C046A12200001D220000F8B505003D
S1132B300C00012974D90120AB69994271D22B7818
S1132B40022B34D0032B49D0012B02D00120404268
S1132B5067E04E087618710A2B6A9C466144280087
S1132B60304B9847002802D00120404259E0F30539
S1132B70DB0DEB1830331F780136710A2B6A9C4643
S1132B8061442800274B9847002802D00120404286
S1132B9047E0F605F60DAD193035287800023843C4
S1132BA0E30701D500093CE00005000D39E0090AFE
S1132BB02B6A9C46614428001A4B9847002802D08F
S1132BC0012040422DE06400FF235B001C402D19CE
S1132BD030356B781B022878184322E0C9092B6A28
S1132BE09C46614428000F4B9847002802D00120DE
S1132BF0404216E0A400FE235B001C402300303357
S1132C00EB18D87800069A78120410432C19303443
S1132C10227810435B781B0218430001000900E08E
S1132C200120F8BD8D2A0000F8B504000D00E180F4
S1132C3081680220012903D023689A69914200D354
S1132C40F8BD002919D11A78032A13D00022E260B2
S1132C501A890220AA42F3D92A0992B25B6A9B1804
S1132C602361236830330F2215406D015D196561BE
S1132C700020E5E7596A0029E8D09E783601B5427C
S1132C8013D3AD1BADB2104F00E01D002068B84750
S1132C900100431C12D0012812D923689B69984271
S1132CA010D2AB1B9BB2B542EFD2E1602068074B58
S1132CB098472B099BB218182061D2E70120BFE77F
S1132CC00220BDE70220BBE72D2B00007924000081
S1132CD0F0B5C64600B507000C0016000225012910
S1132CE002D98369994203D3280004BC9046F0BDFD
S1132CF00378022B53D0032B63D00225012B02D07F
S1132D0001233B71F0E74B08984688444346590A2F
S1132D10036A9C4661443B4B9847051EF0D14346E9
S1132D20DB05DB0DE2071FD5FB18303319780F22C2
S1132D300A403101FF20000101400A431A70444651
S1132D40013401233B71610A3B6A9C4661443800AB
S1132D502C4B9847002851D1E405E40D3609F6B20E
S1132D603C1930342670CBE7FB1830331E704446D0
S1132D70013401233B71610A3B6A9C46614438007B
S1132D80204B984700283BD1E405E40D3B19303330
S1132D901B780F2293433605360F1E43E0E7090ADA
S1132DA0036A9C466144174B9847051EA8D16300EB
S1132DB0FF2464002340FB1830331E70360A5E7013
S1132DC09EE7C909036A9C4661440E4B9847051E59
S1132DD096D1A400FE235B001C4022003032BA18B6
S1132DE0D3783C1930341B091B071E432670330A61
S1132DF05370330C9370360ED67081E705007FE76D
S1132E0005007DE78D2A0000F0B5C64600B5050033
S1132E108846002907D1C668002E0DD083699E42DA
S1132E200BD3012609E0264B984701283DD9AB690D
S1132E304646984201D23DE001263400204F0AE084
S1132E4021002800B84700280DD0431C32D00128A7
S1132E5030D0B4422DD00134AB699C42F0D3012E62
S1132E6025D90224ECE7174A21002800164B98477D
S1132E70002813D14346002B09D1EC602B695A1C5E
S1132E801BD0013B2B6101236B71200012E0220057
S1132E90414628000C4B98470028EED001384242A6
S1132EA0424150420123184304E0012002E0002083
S1132EB000E0002004BC9046F0BD2000FAE7C046C4
S1132EC02D2B0000FFFFFF0FD12C0000F8B5CE46DC
S1132ED0474680B504000D000220012902D9A369E8
S1132EE0994203D30CBC90469946F8BD134F144B3A
S1132EF098460123994603E03500A369B342F1D90A
S1132F0029002000B847061E11D0012811D0431C07
S1132F1011D0002229002000C0470028E2D12369F3
S1132F205A1CE9D0013323614B466371E4E7002066
S1132F30D8E70220D6E70120D4E7C0462D2B0000B5
S1132F40D12C000070B5040000212E4B98470028B6
S1132F500AD12378032B08D06078002200212A4B61
S1132F609847431E9841C0B270BD6379002BF3D0DB
S1132F700023E362210030310B008C229200A01860
S1132F8000221A7001338342FBD155221F4BE254B5
S1132F9055321F4BE254DE3BFF3B7A3AA3540132D5
S1132FA0A3540F330132A3540F32332022543F3041
S1132FB08525AD006055174D605517482254174AB2
S1132FC0A35423690132A354180A154AA054180CB7
S1132FD0144AA0541B0E144AA354E3680132A354A8
S1132FE0180A124AA054180C114AA0541B0E114A74
S1132FF0A3546078012362690F4DA84700236371CD
S1133000AAE7C0468D2A0000252300002E020000F6
S11330102F02000015020000160200001702000033
S1133020190200001A0200001B0200001D02000029
S11330301E0200001F020000A1220000F8B5D646BF
S1133040474680B506000D00C4880134A4B20420AC
S1133050002C03D10CBC90469A46F8BD3369002B72
S1133060F8D00F2727400FD101333361F1680029CD
S113307004D133681B89A342ECD905E03068837816
S1133080013B22091A4207D0F480336830337F01B0
S1133090DF1977610020DDE72E4B98478046022038
S11330A04346012BD6D9013350D033689A699045F1
S11330B044D30230002DCDD0F1681800264B984738
S11330C0804607204346002BC4D00538012BC1D0CD
S11330D001380133BED000213068204B98470300EB
S11330E00120002BB6D133681A0030328C218900BC
S11330F08C4663440021117001329A42FBD1356839
S113310041462800164B9847E862002501239A4659
S113311033689A78AA420ED952461A71002130684F
S11331200E4B9847002813D13268D36A0133D36217
S11331300135EDB2ECE7DA6A521BDA624346F3601A
S113314041463068064B984730619DE7012081E78E
S113315001207FE72D2B0000092E00008D2A00009E
S113316079240000F0B5DE4657464E464546E0B5A4
S113317083B0050000215A4B9847071E00D09EE0FB
S1133180FF2399469A46574B9B461BE00F2B30D0A2
S11331905346002B05D12000534B9847814500D15D
S11331A08DE001235B422B84A869C37ADB0700D43A
S11331B07DE0FF239A46002128004C4B9847071EC8
S11331C000D07CE029692868D847071E77D16C694C
S11331D02678002E00D180E0E27A3F231340E52ECA
S11331E000D177E01207D1D50F2B02D0FF239A46E6
S11331F0E1E7EF69002FDED0730618D5637B9946AB
S113320040239E43EB882B84637B0093FF229246EA
S11332104B45D0D12378BF3A9343013B5A00D2188F
S1133220920092469A440122002399461DE0B24539
S1133230EAD0FF239A46BEE72D4B984701905346A8
S1133240FE2B1FD801235344984653465B00D85B9A
S1133250274B98470200019B834213D1C2460123A6
S11332609C46E1444B460D2B11D0224B4946C95C88
S113327063185B781B02605C1843002ADCD11E4B88
S11332809842ECD0009B9946FF239A4693E7237813
S11332905B0606D5002A04D053465B00DB5B002B9B
S11332A0F0D1013EF3B29A46009B994683E700238E
S11332B0E15CC25C91420AD101330B2BF8D1380096
S11332C003B03CBC90469946A246AB46F0BDFF23F2
S11332D09A4670E7FF239A466DE70427EFE7C04656
S11332E0292C00008D2A0000912400003D300000AC
S11332F029240000A89E0000FFFF0000F0B5DE4670
S113330057464E464546E0B583B000900D000B7815
S11333102F2B0FD05C2B0DD00023009A93602B78B9
S11333201F2B0AD8002114001000B24B9847002329
S113333063613CE10135EFE7013528782F28FBD0A4
S11333405C28F9D0009BDB69984680B21F2800D81E
S11333503CE12F2800D13CE15C2800D13CE11E0077
S11333606F1C012480235B009946AA4611E0002BC0
S113337033D13080631C38781F281ED92F2800D100
S11333802DE15C2800D143E1023601374B4524D0BE
S11333901C000121984B9847011E1ED07F28E8D8B5
S11333A0222800D102E12A23944A9DB28D42DED024
S11333B001321378002BF8D1DBE75546ED180426CB
S11333C010E1013C023B002C00D1EFE01A88202AD6
S11333D0F7D02E2AF5D0002C01D10620E7E06000BA
S11333E0002342461352009B9B6919000B31202293
S11333F01A7001338B42FBD14246002301E00133B2
S1133400023211882029FAD02E29F8D0002B01D0BD
S11334100322164342461218023A12882E2A08D072
S1133420021F4244013C002C03D0023A51882E2949
S1133430F8D10822934600229246914606E0A7421C
S113344000D1E7E003231E43F6B23B005F1C5B00A0
S11334504246985A00282BD02028F3D02E28EED0AC
S1133460DA4519D2A74200D1D4E07F2864D82B28AA
S113347074D02C23624A99B281426DD00132137800
S1133480002BF8D10300413B9BB2192B74D80223C3
S11334904A461A43914665E05B460B2B40D0A7424F
S11334A000D1BBE003231E43F6B2A74200D8B5E027
S11334B0009B9B691A78E52A3BD05B46082B67D0B2
S11334C00C234A4613400C2B67D0D243920764D096
S11334D0B20706D4032249460A40012A60D0042BCD
S11334E061D0009CA2690192D6722000454A90479F
S11334F0A3690193DB7A002860D15B0757D4009855
S11335004269D37ADB065FD5517D0902137D0B43F3
S11335101B04D17E0902927E0A43134383600CE7A5
S113352003231E43009B9B691A78E52AC8D10B220A
S1133530934605221A70C0E700212F4B98470028B4
S113354000D175E0304B9C466044803800780223FB
S11335501E43002802D08AE7002B93D003231E4386
S1133560F6B25F20009B9B690193524698543B003E
S113357001229446E24469E70300613B9BB2192BA4
S1133580F0D801234A461A439146203880B2E9E72D
S11335904B469B00DBB2994692E70222164397E71B
S11335A00F3216439BE704331E439AE7062003B009
S11335B03CBC90469946A246AB46F0BD0428F6D1E1
S11335C05B07F4D40130F2E70520F0E7012300247F
S11335D0F4E60123002403E00123002400E055461F
S11335E0ED180026002CE1D0084BE3185B0043449F
S11335F0ECE6C046292C0000E1230000399F0000BE
S1133600459F000065310000B89E0000FFFFFF7F6A
S11336105546E5E75B460B2B00D181E74B469B0003
S1133620DBB2994623000B229346033A92460DE7F8
S113363002231E4392E7C046F0B5DE4657464E4687
S11336404546E0B589B004008769C3699A4605AD6B
S11336500C2239002800A84B9847EB7ADB0700D4EA
S113366070E00023FB72E3610B2205A93800A24B32
S11336709847012303AD1E00A04649E001382918EC
S11336804A701B099BB2002B07D0210019400A0085
S11336903032392AF2D90732F0E77E332B5400282E
S11336A00AD03B78202B09D000230133984207D05D
S11336B0FA5C202AF9D109E0030007E0002305E0C1
S11336C0030003E0FA540133072B05D8202207280E
S11336D0F8D82A5C0130F5E74046884B9847002823
S11336E01CD10136B6B2642E15D00B2205A93800C0
S11336F0814B98473300052E0AD951465A08DB03FB
S113370013430A889B189BB202310A88002AF5D118
S113371007200F24B9E70723984606E0444680466D
S1133720642E00D1A5E0042807D0404609B03CBC73
S113373090469946A246AB46F0BD05ABDB7AFB72D8
S11337405346E36105ABDB7A012293469B0711D50F
S113375053461B88002B1BD000205246013080B2F8
S113376043009B5A002BF9D119300D21644B984723
S113377083B29B4600212000624B98478046002874
S1133780D3D182460025604F0026604B99460BE05A
S11337900020E9E76B1C9BB29B456DD01D00012105
S11337A02000C847002812D121692068B8470028A2
S11337B000D09BE063691B78E52B01D0002B04D17A
S11337C0002DE7D1E3889A46E4E73500E7E7804631
S11337D0ABE7514620004B4B984780460028A4D1C4
S11337E0A0694B4B98470190A8461FE022006AE06D
S11337F05E46644647498B4203D05200935B002BDC
S113380003D140234A461A4391464B460370012391
S113381022681371002120003C4B9847002869D18D
S11338204546013DABB29846002B27D0216920685C
S1133830354B984700285BD1E669606943466A4680
S1133840D370D3789946137943730F23C37200233B
S113385003738376C3764B46013B5A00D218920019
S1133860D2182D490D000D3500232A4FB346A44626
S11338702CE00723984658E7012BAAD82169206831
S1133880214B98478046002800D04EE765692B00FD
S11338902900203100221A7001339942FBD10B22F6
S11338A0A1692800144B9847A369DA7A18231340B6
S11338B02B73236801221A7137E70C78FF2606550B
S11338C00419FF26667001318D4291D0BB42F4D0B9
S11338D0541C52005B46D35A0A78835482181E0A39
S11338E05670002B82D122003B00ECE780461CE797
S11338F080461AE7804618E7652400006531000019
S113390011660000292C00008D2A00003D300000C3
S113391091240000FFFF0000A89E00000B23002854
S113392001D018007047074B1B68002B01D0002200
S11339301A70002901D000230B70024B1960002378
S1133940EFE7C046FC000020F0B5C64600B5594C70
S1133950A544050001911700002303601F261640AB
S11339601E223A4085A901A8534B984782AB8B93FA
S113397002AB8C93002806D08A9C1C233B4245D181
S113398000283DD10CE0019985A84C4B98478A9CAE
S11339900028F2D1002C00D186E01C233B4246D102
S11339A0E37A0420DA062BD4BA0702D50330DB0706
S11339B026D43B0701D520231E43859BDB6AEB619C
S11339C02C62AE71627D1202237D13431B04E17EDF
S11339D00902A27E0A4313432B61E37F1B06A27FE5
S11339E012041343227F1343627F12021343EB60DA
S11339F00023AB60AB61859B2B60DB88AB80002030
S1133A008E239B009D4404BC9046F0BD042805D041
S1133A1008231E438A9C0028D3D0F1E785A8284BAD
S1133A20984708231E438A9C002808D0E8E7E37AD5
S1133A30112207201A42E3D101307B07E0D4330777
S1133A40BBD5204B9847A073030AE373030C23747C
S1133A50000E60740023E37223776377A377E37720
S1133A60627D1202277D17433F04E17E0902A27E94
S1133A700A431743A376E376237563758598013368
S1133A800371002F97D0C36A984639000E4B9847AC
S1133A900028B5D18598013FC76041460B4B984734
S1133AA0002800D187E7ABE71C2306203B42B2D0B5
S1133AB00620ADE7C8FDFFFF81250000FD320000B0
S1133AC03936000091230000CD2E00008D2A00001D
S1133AD0F0B5DE4657464E464546E0B583B0040091
S1133AE00D001600994600234A4613608188006839
S1133AF07D4B98470090002800D0ECE0A3795AB29F
S1133B00002A00DAE5E09B0702D407230093E2E0F1
S1133B10E3689A19934210D8002E0ED02F007FE04C
S1133B200021724B98470300206103E061696F4BE9
S1133B3098470300002B00D085E0A368E268934215
S1133B4000D9E360A37920221343A371C3E0A279CF
S1133B50813B1343A37102230093BCE0A2797F3B12
S1133B601343A37101230093B5E02100243123689A
S1133B7058780123A2695E4DA847002804D1A3798F
S1133B8040229343A37167E0A27980235B421343ED
S1133B90A371012300939EE0A27980235B42134327
S1133BA0A3710223009396E0A27980235B4213431E
S1133BB0A371012300938EE04002391820002430C1
S1133BC0802292004B4B9847A37940229343A371E0
S1133BD06AE0A369984503D0A368E268934266D378
S1133BE04346A361A368D805C00D8025AD002D1AF6
S1133BF0B54200D93500243020182A0039003D4B45
S1133C009847A37940221343A3717F19A3685B19D2
S1133C10A3604B461B685B194A461360761B8CD025
S1133C20A368DA05DED120688278013A5D0A15407E
S1133C30EAB29346002A0CD1002B00D076E7236920
S1133C40002B00D16CE7012B00D180E75A1C85D0F2
S1133C506361A3795B0688D423689A466169180076
S1133C60254B9847002897D0804658468446D84428
S1133C70730A9B46ADD053469B785A4662449A4297
S1133C8001D91B1A9B465B466A46D371D3795246C7
S1133C90507842463900164DA847002884D1A369BC
S1133CA04246981A834587D85B465D02ADE72100FA
S1133CB024315346587801234246104DA847002822
S1133CC08ED0A27980235B421343A3710123009316
S1133CD001E002230093009803B03CBC904699464F
S1133CE0A246AB46F0BDC046AD240000092E00003C
S1133CF0A122000065240000792400001D22000098
S1133D0070B5040081880068254B984700281AD1B3
S1133D10A3799A0617D55B060FD5210024312368B1
S1133D2058780123A2691F4DA84703000120002BE6
S1133D3009D1A37940229343A371E16920681A4B06
S1133D409847002800D070BD256AEB7A20221343DF
S1133D50EB72237B2B77A3891B0A6B77E389AB7701
S1133D60E37BEB77237CAB76238A1B0AEB76638AAF
S1133D702B75638A1B0A6B750C4B9847A875030A4D
S1133D80EB75030C2B76000E6876A37920229343FF
S1133D90A3710123226813712068054B9847D2E769
S1133DA0AD240000A12200008D2A00009123000010
S1133DB0452F000010B50400034B9847002801D19B
S1133DC00023236010BDC046013D000030B5124CF5
S1133DD0A54401900D00002285A901A80F4B984726
S1133DE0041E04D020008F239B009D4430BD82AB71
S1133DF08B9302AB8C93019985A8094B9847041EB9
S1133E00F0D18A9B002B04D0290085A8054B984744
S1133E10E8E70624E6E7C046C4FDFFFF812500006D
S1133E20FD3200002929000010B582B00C006B4659
S1133E30187001AB012269462000054CA047019B84
S1133E40581E431E984140420123184302B010BD3E
S1133E50D13A0000F8B506000D00007800280BD018
S1133E600024064F2900B847431C04D00134305DB8
S1133E700028F7D12000F8BD0020FCE7293E00000F
S1133E8003680A4A934203D0094A934207D0704711
S1133E90084A116980235B000B431361F7E7054A65
S1133EA0116980239B000B431361F0E7001C00425F
S1133EB0002000420008004070B50C0015000160AD
S1133EC0A54B9847A54B00221A702A781A70A44B68
S1133ED09C4200D1C6E0A34B9C4200D1FFE0A36901
S1133EE002221343A3610023BC22A3500C32A3502B
S1133EF09D4BE3619D4BE360AB7B002B04D0E268F8
S1133F0080231B041343E3606B78002B03D0A36866
S1133F1040221343A3606269AB7813436361EB7877
S1133F20002B04D0A2698023DB011343A3612B7906
S1133F30002B04D0A26980239B011343A3616B79F6
S1133F40002B04D0A26980235B011343A361AB79E6
S1133F50002B03D1A36940221343A361EB79002B07
S1133F6003D0A36910221343A3612B7A002B03D03F
S1133F70A36908221343A3616B7A1B04F022120382
S1133F8013400122134323622B7B6A7B13436A8908
S1133F9012041343A362EB7B1B02FE22D2011340E3
S1133FA0297C7F220A401343A3646A7C12013023D4
S1133FB01340A97C89000C220A4013438022A35099
S1133FC0EB7C002B03D0A35802210B43A3502B7D81
S1133FD0002B04D08022A35801210B43A35090232B
S1133FE0AA69E2502B7F002B05D0A022A158802380
S1133FF01B060B43A350A022A1586B7F1B06FE2077
S1134000C00503400B43A350AB7F002B05D01032F7
S1134010A15880231B060B43A350B022A158EB7F69
S11340201B06FE20C00503400B43A3502023EB5C7A
S1134030002B05D01032A1588023DB050B43A3507D
S1134040F022A1582123EB5C1B06FC2080050340D1
S11340500B43A3500323E365043B103AA3500432FB
S1134060A35070BD3D491A20414B98471A20414B3B
S113407098473B4B9A6902210A439A613E4A1204CB
S1134080120C802189030A4384215A503B4A1204AA
S1134090120C802149030A4388201A50384A12041A
S11340A0120C0A4318301A50364A1204120C1143E7
S11340B0B0229950344A1204120CAC215A50334A9B
S11340C01204120C32490A43C0215A50314A1204D4
S11340D0120C802109030A43F0215A5003E71F49B7
S11340E01B20234B98471B20224B98471D4B9A6952
S11340F002210A439A61284A1204120C802189037E
S11341000A4384215A50254A1204120C802149037F
S11341100A4388201A50224A1204120C0A43183007
S11341201A50204A1204120C1143B02299501E4A0C
S11341301204120CAC215A501C4A1204120C1449D9
S11341400A43C0215A501A4A1204120C802109034E
S11341500A43F0215A50C6E6813E00007C0B002041
S1134160001C004200200042030A0506330A050031
S1134170E15F0000715F000084040020040200205D
S11341808402002084030020040100200405002090
S1134190000004048405002044090020C406002013
S11341A04407002044080020C4050020C40900205E
S11341B0440A002070B504000D000C4B98420DD049
S11341C00B4B00209C420DD029000A4B984700035A
S11341D0094B1840094B1843E06170BD1A20084B85
S11341E09847F1E71B30064B9847EDE7001C004267
S11341F000200042FD6400000000FF01030A0006E5
S1134200056000000268936901218B439361016892
S113421001228B691A42FCD17047000010B5036873
S11342200C48834204D00C4C1720A34209D010BD83
S113423008680A4BD200D05049689B185960002086
S1134240F5E70868064BD200D05049689A185160C7
S11342500020ECE7001C0042002000420402002081
S1134260C406002070B50D0003680D4CA34204D0B1
S11342700C4C1720A34209D070BD12010A498918B9
S113428010222800094B98470020F5E7120108493D
S1134290891810222800054B98470020ECE7C046F7
S11342A0001C004200200042040100204D81000057
S11342B0C405002070B50D0003680D4CA34204D062
S11342C00C4C1720A34209D070BD12010A49891869
S11342D010222800094B98470020F5E712010849ED
S11342E0891810222800054B98470020ECE7C046A7
S11342F0001C004200200042840200204D81000086
S11343004407002070B50D0003680D4CA34204D08F
S11343100C4C1720A34209D070BD12010A49891818
S113432010222800094B98470020F5E7120108499C
S1134330891810222800054B98470020ECE7C04656
S1134340001C004200200042840300204D81000034
S11343504408002003681A69002AFCD11A88022143
S11343600A431A8002681369002BFCD170470000CD
S113437003681A69002AFCD1054A1A819A811A88AD
S113438002218A431A8002681369002BFCD170470A
S1134390FF81FFFF70B504000568074B984722684A
S11343A01369002BFCD12B88012213432B80226834
S11343B01369002BFCD170BD7143000010B5CB888C
S11343C0C2889A1A92064B799B050C79640423439C
S11343D08C782403234313430279002A05D1CA7835
S11343E0002A02D0802252021343487880010A78BE
S11343F01043184310BD10B58B0EC4881B19D3800D
S11344008B011B0F53718B02DB0E13710379002B8D
S11344100CD10B041B0F9370CB03DB0FD3708809F3
S11344203F23184050701940117010BDCB03DB0EB0
S11344309370F4E770B504000568054B98472B6941
S1134440002BFCD1A86122681369002BFCD170BD3C
S1134450BD43000010B50A0004682369002BFCD199
S1134460A169014B984710BDF7430000F8B505005A
S11344700E0014001720012A00D9F8BD2F68280067
S11344800A4B98473B69002BFCD1E4003C1920629D
S11344902A681369002BFCD1327A2433E2542A6847
S11344A01369002BFCD10020E7E7C046BD430000A0
S11344B070B5050014000160164A516980239B0001
S11344C00B4353610022144B1A61144B9847E37851
S11344D02B71A388EB80124B1D602A682388A17975
S11344E0002913D108310B43E178002901D140316F
S11344F00B43A178002901D080210B4313802100B4
S1134500083100222800074B984770BD06490B4329
S1134510EAE7C0460008004000140040954300004C
S1134520800B00206D4400000880000070B582B04C
S113453005000C0000226B46DA8006683000244B2C
S113454098471F2318401E3B8340802221498B50EB
S11345502A68D369002BFCD18F33337533763368E3
S11345600222934333602868C369002BFCD11A4BA1
S113457098471330C0B2194B984701006B469A1DF7
S11345802000174B9847041E03D01724200002B0C4
S113459070BD6B4606331B7833732E68F369002BAA
S11345A0FCD130000A4B98471F2318401E3B834020
S11345B0084A13602A68D369002BFCD133680222AD
S11345C0134333602A68D369002BFCD1DEE7C0466D
S11345D09951000000E100E00D5100000560000069
S11345E0034F0000F0B58BB005000C0016002960E5
S11345F00B681C209B0701D50BB0F0BD0B68173866
S1134600DB07F9D40800714B984703001720052BEA
S1134610F2D06F49C8695F1C0122BA400243CA61E3
S113462009A92427F25D0A701333DBB20193180041
S1134630684B98470198684B9847F05D0021674B99
S113464098473378012B3FD03378002B03D123686C
S11346500822134323602B000C3329002831002245
S113466004C38B42FCD10023EB62AB620024AB8613
S11346702B863633EC540133EC540133EC54353B84
S11346806B722C712868514B984707005449554B5D
S11346909847BF00544BFD502F6804AB80221A701A
S11346A05C707F3A9A70DC703378002B02D1002260
S11346B004AB9A70B36A0593F36A0693336B07935A
S11346C0736B089300240BE023680C2213432360CC
S11346D0BAE73800454B98470AE00134042C10D05F
S11346E0E1B2A30002AA0C201218D0580028F0D07E
S11346F0431CF2D004A90870000CC0B23C4B98478C
S1134700EBE733786B71337CAB71B37CEB71337D46
S11347102B72002202ABDA803378012B12D033786B
S1134720002B26D1B069B28B7B6AF17F0904B47F78
S11347302143194379622023F35C002B1BD04023CF
S11347401A4318E02868214B98471330C0B2294B0C
S11347509847010002AB9A1DB069274B98470300A4
S11347601720002B00D047E702AB06331B783B73BE
S1134770D5E7002200207368B1680B43F1680B434E
S11347800343317C0A43717C002903D11B49897896
S1134790890701D580210B43B17C002902D08021F7
S11347A089020A43F17C002902D0802189000A434E
S11347B0317D002902D0802189010A4339680B43E5
S11347C03B607B681A437A60002015E70D510000B6
S11347D000080040E15F0000715F0000C14F00006D
S11347E0254C000059510000880B00200D5000009A
S11347F0DD60000005600000034F00000020004160
S1134800F0B5D6464F4680B583B08C463825465D14
S1134810333D052E75D01235002A72D0C479053582
S1134820002C6ED04479002C03D10468257EA9079E
S11348300AD4013A94B200260422022189460127AF
S1134840DB05DB0D9A4637E002252576F1E70168A2
S11348500B7E3B42FCD00B7E3B4209D053468B621D
S11348602DE00B7E4D462B4238D10B7E134245D0B2
S113487001680B7E1342FCD00B7E134240D04B8B5D
S113488000250195134202D04A831E2301938379A4
S1134890012B27D08B6ADBB20199002937D1751C13
S11348A0ADB261468B55817901291FD02E00013CA0
S11348B0A4B2184B9C421FD04379012BC7D0437933
S11348C0002BD5D101680B7E1342CAD1124B0D7E49
S11348D01542C6D1013B002BF9D1C2E702230B7666
S11348E004250EE08B6ADB05DB0DD5E70236B6B294
S11348F01B0A61464B55DAE7019D02E0122500E0F0
S11349001025280003B00CBC91469A46F0BD019DC9
S1134910F7E7C046FFFF00001027000010B54479F8
S11349201523012C01D0180010BD047A0023002C9B
S1134930F9D1002A5BD04B78002B46D003681B7E4C
S1134940DB0711D40A78D1090023002905D15309C2
S1134950DB018221C9058C4663441F2111400122D9
S11349608A409A610523DEE70A78D4090023002CE3
S113497005D15309DB018224E405A44663441F24C2
S113498014400122A2405A6103681A7ED20701D55D
S11349908A789A62C2790023002AC4D10268042169
S11349A0137E0B42FCD0117E00234907BBD5538BE9
S11349B05B0701D5042353838379012B02D0936AC7
S11349C00023B0E7936A0023ADE70A78D1090023F6
S11349D0002905D15309DB018221C9058C466344B2
S11349E01F21114001228A405A6100239BE70A7863
S11349F0D1090023002905D15309DB018221C9050E
S1134A008C4663441F21114001228A409A6100238D
S1134A1089E70000F0B5DE4657464E464546E0B508
S1134A2083B03823C45C333B052C02D01233002AF4
S1134A3007D1180003B03CBC90469946A246AB4649
S1134A40F0BD4379002B03D103681C7EA4070AD46C
S1134A509346002401230225AC460235A846013AB8
S1134A6092B28A4623E002241C76F1E7357E614641
S1134A700D422ED1357E1D4200D1C2E00668357E3E
S1134A801D42FCD0671CBFB251460D5D81790129DE
S1134A9023D0ADB23C00377E1F4202D0ED05ED0DB0
S1134AA0B562551EADB2C679002E1DD12A005A4DED
S1134AB0AA4270D04579002DE0D10668357E1D42AA
S1134AC0D4D1564D377E1F42D0D1013D002DF9D1AE
S1134AD0CCE7022333760233ABE70234A4B2514667
S1134AE0CF5D3F023D43D6E751464579002D37D18E
S1134AF04B4D019112E00234A4B24946019F795C06
S1134B000902009F0F431BE0013A92B20668377E08
S1134B1041460F421BD1013D002D18D0002AF5D08B
S1134B200668377E1F42F1D0671CB9B289460199E5
S1134B30095D009181790129DDD069460F884C46D1
S1134B40317E1942E0D0FF05FF0DB762DCE7019921
S1134B50357E67463D4218D1357E4646354252D0B1
S1134B600668357E47463D42FBD0357E3D4207D040
S1134B70758B3D4200D077838579012D09D0B56AC4
S1134B805D46013DADB2AB4669E70223337602339D
S1134B904FE7B56AF4E74379012B0BD0002B34D1EE
S1134BA0C279002A00D144E704245B465D46002B09
S1134BB019D13EE7016802220B7E1342FCD0002388
S1134BC037E70B7E234222D00B7E234207D04B8B48
S1134BD0234200D04C838379012B10D08B6A013D92
S1134BE0ADB2002D15D001680B7E2342E9D10B4BE9
S1134BF00A7E2242E5D1013B002BF9D1E1E78B6A21
S1134C00EDE7122315E7122313E7002311E712231C
S1134C100FE700230DE7C046FFFF00001027000048
S1134C2011270000F8B58000854BC4582668372347
S1134C30E35C3622A75C1F40337EB57D1D40EB0745
S1134C402ED56379012B25D0002B29D1637A002B33
S1134C5026D02168E26A1378DBB2501CE062A079A6
S1134C60012800D169E09BB2DB05DB0D8B62A38ECA
S1134C70013B9BB2A386A38E9BB2002B10D10133C0
S1134C803375637A012B0BD1E379002B08D10233FE
S1134C90B37505E0637A002B3ED0637A002BD8D13C
S1134CA06B0711D5738B5B0751D5637A012B08D041
S1134CB01E223823E254353B6372023333753B07BB
S1134CC041D4B36A04237383AB0715D56379002BEE
S1134CD00ED107333375053B3376013363720023FA
S1134CE0A386238638330022E254FB0600D57FE0F6
S1134CF06379012B00D17FE02B0708D56379002B62
S1134D0005D1083333753376BB0600D58AE06DB21E
S1134D10002D00DA8AE0F8BD4A4B1B88B362638E2B
S1134D20013B9BB26386638E9BB2002B01D101339E
S1134D3033756379012BB0D086E7507800020343C2
S1134D400232E26290E72000A3699847B9E7637AE8
S1134D50012B27D023689B6ADB05DB0DDAB2A16A3D
S1134D600A70A26A511CA162A179012933D0238E51
S1134D70013B9BB22386238E9BB2002BA4D100223D
S1134D803833E254343B3375637A022B29D0637A87
S1134D90002B00D098E7BB0700D495E720002369D7
S1134DA0984791E723689B6A638E013B9BB26386B5
S1134DB0638E9BB2002B00D086E704333375002248
S1134DC03433E254353B6372FB0700D47CE72000A4
S1134DD0E368984778E71B0A5370A36A0133A36218
S1134DE0C5E77B0700D46FE72000636998476BE74A
S1134DF02000E36998477BE7637A012B00D086E7BC
S1134E00E379002B00D082E70233337501336372F8
S1134E1000223533E254FB0700D46DE72000E36839
S1134E20984769E72000236A984770E78023337521
S1134E3033767B0600D46EE7636A200098476AE7FE
S1134E40880B0020840B0020F0B5DE4657464E4602
S1134E504546E0B587B08046049116001F00002245
S1134E60002300218B463F24012021000096019756
S1134E705C4603944446059413E02024641A050018
S1134E80E540A84614E0009C019D121BAB415C4622
S1134E904D462C43A346039C45462C4303940139B9
S1134EA025D3202464420C19E7D40500A540A84664
S1134EB004008C40A14692185B4114001D00059E1D
S1134EC04F463E40B446049E47463E40B246664680
S1134ED057463E4303D00600264332002B00009C75
S1134EE0019D9D42DBD8CED19442D8D8CBE7039B19
S1134EF05846190007B03CBC90469946A246AB46BA
S1134F00F0BD10B5490840230024814202D21800A4
S1134F1010BD1C00091A631C9BB28842F9D94023B6
S1134F20FF2CF4D814800023F1E70000F0B583B01F
S1134F300F00160008AA117804004C434022BC421A
S1134F4002D9100003B0F0BD002B14D102000800F8
S1134F500021194CA04701003A0000230020174CFF
S1134F60A04700220123121A8B41120C1B041A437E
S1134F7032800022E5E70022012BF9D10A00002348
S1134F8000210D4CA04702000B0000920193380051
S1134F9000210A4CA047050080239B01402298422F
S1134FA0CFD8790FF800009A019BA047EA00821A33
S1134FB0D2B252032A43DBE7E9670000494E0000FE
S1134FC010B582B004000E4B1B78002B07D00029CB
S1134FD005D10B4B5B78834210D01D200CE001A956
S1134FE00C701220074B98471220074B9847044B2C
S1134FF05C7001221A70002002B010BD0020FBE793
S1135000840A0020E15F0000715F00002B4B98428E
S113501023D00FD92A4B98422FD02A4B984242D101
S113502001293AD0002946D0022938D0032938D0A2
S1135030002039E0244B984235D1012907D00029BA
S113504033D0022905D0032905D000202CE01F48C5
S11350502AE01F4828E01F4826E0012907D000293C
S113506025D0022905D0032905D000201CE01A48C8
S11350701AE01A4818E01A4816E0012907D0002956
S113508017D0022905D0032905D000200CE01548CB
S11350900AE0154808E0154806E0154804E01548FC
S11350A002E0154800E0002070471448FCE714486B
S11350B0FAE71448F8E71448F6E7C0460008004247
S11350C0000C0042001000420004004203000500EE
S11350D00300060003000700020011000200120092
S11350E0020013000300090003000A0003000B0080
S11350F00200170002001800020019000300040057
S113510002001000030008000200160030B585B04C
S11351106A460F4B32CB32C21B6813600300009AFD
S1135120824211D0019A82420AD0029A824209D064
S11351300020039A9A4201D005B030BD033004E048
S1135140012002E0022000E00020C0B2F4E7C046E3
S11351504C9F00007047000030B50B4B1B78002BB0
S11351600ED10A4C0A4D25600A4B00221A60656074
S11351705A60A5609A60E560DA600132024B1A70E9
S11351808000024BC15030BD860A0020880A0020EE
S113519055510000880B002010B582B001AC0923E2
S11351A02370013363700133A3700133E370024B46
S11351B09847205602B010BD0D51000010B5024BA7
S11351C01B680020984710BD880A002010B5024BC8
S11351D05B680120984710BD880A002010B5024B77
S11351E09B680220984710BD880A002010B5024B26
S11351F0DB680320984710BD880A002070B50020A2
S1135200084B98470500084CFA218900A047074B32
S1135210186007492800A047064B18600522064B72
S11352201A6070BD055F0000FD64000024000020CA
S113523040420F002800002010E000E030B5084B89
S11352401C68084A002580214902013807D3002C34
S1135250FBD05460956013680B42FCD0F5E730BD79
S11352602400002010E000E000B583B06B46D91D97
S1135270FF230B7001220B480B4B98470B4B1B88E9
S1135280012B0AD0FC226B469A7101226B46991DB0
S11352900448054B984703B000BDFE226B469A7143
S11352A0F3E7C046980A0020154A0000DC0A0020F3
S11352B0F0B583B06B46DC1DFF232370124E012230
S11352C021003000114DA847FF23012221003000A6
S11352D0A847FF23012221003000A8470C4C6B464D
S11352E0DD1D094E094F2B78FF2B09D0FF23012226
S11352F029003000B847013C002CF4D1002000E024
S1135300012003B0F0BDC046980A00200148000007
S1135310400D030070B582B0144B1C88012C23D0BF
S1135320134B1988134B1868134B98470123844275
S113533002D9180002B070BD6B46DC1DFF23237038
S11353400E4E0122210030000D4DA847FD2323708D
S1135350012221003000A8470A4B9847031EE8D1D8
S11353600521094A1170E4E70123E2E7DC0A002081
S1135370D40A0020E40A0020FD640000980A0020FA
S1135380154A0000B1520000DB0A0020F0B583B0DA
S113539000226B46DA71144C6B46DD1D134E144F1C
S11353A0FF23012229003000B8472B780F2219006F
S11353B091430A1E09D0FE2B13D0013C002CEFD1DF
S11353C004220C4B1A7000200CE05B0704D0073257
S11353D0084B1A70002005E00B22064B1A700020BF
S11353E000E0012003B0F0BD20A10700980A0020CE
S11353F001480000DB0A002030B583B001A9012375
S11354005B420B80144D02222800144B98476B46D4
S1135410DC1DFF23012221002800114DA84722781A
S113542011231340012B05D001220E4B1A700020CA
S113543003B030BD1E231A40042A0BD00A2A04D11B
S1135440023A084B1A700020F2E70A22054B1A7040
S11354500020EDE70120EBE7980A0020154A000040
S113546001480000DB0A002070B590B00025314BE4
S11354701D700FA90D7001264E708D701B202E4BD0
S1135480984701AC26700295039525746574A6743B
S1135490E67425752423E5540C22002107A8274B24
S11354A0984798235B03E360254BA362254BE36293
S11354B001235B422363244B6363244BA361244D88
S11354C0220024492800244B98472C682000234BB1
S11354D098471F2318408640214B1E602A68D369D1
S11354E0002BFCD123680222134323601D4A0023AE
S11354F0537093701C49087810701C4C20706370B2
S1135500A370012269464A708B700A700A4B98474F
S11355102278D1090023002905D15309DB01822116
S1135520C9058C4663441F21114001228A409A61B7
S113553010B070BDDB0A0020855900008381000093
S1135540030008000300090003000B00801A060092
S1135550980A0020000C0042E54500009951000023
S113556000E100E0E80A00202C000020D80A002016
S1135570F8B5070000220D4B1A700C000C4B994231
S113558000D91C000B4D0C4E01E0E308E41A210085
S11355902800B0471728F8D07900CF190749C9194E
S11355A001220448064B9847F8BDC046DB0A002098
S11355B000093D00980A00202D450000D80A00206B
S11355C01D49000010B50022044B1A704100081850
S11355D0034909180348044B984710BDDB0A00200F
S11355E0D80A0020980A00201D49000070B582B036
S11355F0FF226B46DA710022074B1A700A24074E09
S1135600074D01226B46D91D3000A847013CE4B286
S1135610002CF6D102B070BDDB0A0020980A0020ED
S1135620154A0000F0B5C64600B586B08046009223
S11356300193FF220F2302A8844663441A700022B8
S1135640534B1A7004AB3F324046024040200243A1
S11356501A700A0E5A700A0C9A700A0ADA701971D2
S11356600027002304A90822092411E07600F6B2D9
S11356700138C0B2002808D05B00DBB21D007540C1
S11356802D06F3D56340DBB2F0E70137052F02D0D6
S11356907E5C1000F0E75B000122134304AC6371ED
S11356A03C4E01220F2102AB9C46614430003A4F2C
S11356B0B847062221003000B84702ABD91DFF23AA
S11356C00B7001223000354EB047072402ABDE1DBB
S11356D0304F324DFF23012231003800A847337880
S11356E05AB2002A0BDA013CE4B2002CF2D10222B5
S11356F0274B1A70002006B004BC9046F0BD284A1F
S113570013601A071AD45A071DD4012293431FD1D8
S113571043469B0420D443469B0525D443465B055E
S11357202BD4204B6A4612881A801F4B6A469288F3
S11357301A8000221D4B1A600120DCE70622144B5C
S11357401A700020D7E70922114B1A700020D2E703
S11357500F4B1A700020CEE7154B98470028DAD17A
S113576003220B4B1A70C6E70D4900230B60FF336D
S113577001220848094EB047D0E7094EFF2304220E
S113578031000448054FB84733681BBA3360C8E793
S1135790DB0A0020980A0020154A00000148000096
S11357A0E00A0020D40A0020DC0A0020E40A0020D9
S11357B0B152000010B582B0002300930022024CC5
S11357C0A04702B010BDC04625560000014B186822
S11357D07047C046E00A002010B584B00190002252
S11357E0144B1A70144B1988144B1868144B9847AF
S11357F0002903D1134B9847002810D0FF2304221B
S113580001A91148114CA0470C4B1A68101D1860CF
S1135810094B19880A4B98470120002901D004B08C
S113582010BDFF23022203A90748084CA04701200A
S1135830F5E7C046DB0A0020D40A0020E40A002071
S1135840096600008D530000980A002001480000FA
S1135850F0B5DE4657464646C0B582B083460022C0
S1135860174B1A704C1EA4B2002926D00026154BE3
S11358709A46154FD0478046002817D03A885B4691
S11358809919FF231148124DA8473B88F618114A6D
S113589011688C4663441360FF23022201A90B485C
S11358A0A847013CA4B20C4B9C42E3D1404602B051
S11358B01CBC90469A46A346F0BD01239846F5E7E2
S11358C0DB0A00208D530000D40A0020980A00202F
S11358D001480000E40A0020FFFF00000120704797
S11358E0F0B5C64600B580460022154B1A70002557
S11358F0144F154E00E021004C1EA4B200291BD009
S1135900B8473288434659191048114B9847338891
S1135910ED18104A11688C46634413600E4B984787
S113592000280AD0002CE6D00C4B98470028E2D17E
S11359300522034B1A7000E0012004BC9046F0BD20
S1135940DB0A002069520000D40A0020980A0020D3
S1135950154A0000E40A0020F9530000B152000087
S113596010B5054B9847002803D10522034B1A7044
S113597010BD034B9847FBE7B1520000DB0A00203F
S11359801553000000B583B001AB80221A700A7869
S11359905A704A789A708A78DA701900014B9847DD
S11359A003B000BDDD60000000B583B001A9012390
S11359B04B7000228A700B701C20024B984703B076
S11359C000BDC046855900000C4B1B68002B06D156
S11359D0EFF31083002B07D00022094B1A70074AFB
S11359E0136801331360704772B6BFF35F8F0022F0
S11359F0044B1A700132024B1A70F0E7EC0A0020D3
S1135A00F00A00202D000020084B1A68013A1A60A1
S1135A101B68002B09D1064B1B78002B05D00122F3
S1135A20044B1A70BFF35F8F62B67047EC0A002014
S1135A30F00A00202D00002010B5072803D88000AC
S1135A400F4B1B589F46002018E00E4B586815E07A
S1135A500D4B597D0907090F01310C480C4B984730
S1135A600CE0084B986809E0074B1B7F00209B075C
S1135A7004D5044B186801E08020000210BDC04624
S1135A805C9F0000F40A002000100040006CDC025F
S1135A90FD640000F0B5DE4657464E464546E0B587
S1135AA0254A938A457801784C424C41A146817835
S1135AB08C46C1788846467A077A817A8B461F4994
S1135AC044688C60C17A8900847B64002143447BF0
S1135AD02143C9B29175017BD175012148468000EB
S1135AE00424A343034340460840C0000434A343B2
S1135AF003436046084000010834A34303430F40B6
S1135B00BF01402083433B430E40F60140308343B2
S1135B103343793805402D02094803402B43584646
S1135B2001400903074803400B4393823CBC904661
S1135B309946A246AB46F0BD00140040F40A00208A
S1135B40FFF8FFFFFFEFFFFFF8B50400C568037D12
S1135B50012B4DD0A36818012900294B98470F2227
S1135B60024003092178C9016678B6013143C9B2FC
S1135B70244E31771104013B1B051B0D0B4333628B
S1135B8037002C260421BB5D0B42FCD1A3781B03F8
S1135B90E178C9000B43217989000B43A17C0326DA
S1135BA031400B43218A0904174F39400B43E17CF0
S1135BB00902E027FF0039400B43277D3F013021D4
S1135BC039400B430F494B62637D1E402823CE545A
S1135BD00F002C260821BB5D0B42FCD10F239843F8
S1135BE082186A43637D0433DA40084B1A60F8BDB7
S1135BF0018A013149002800014B98470500A9E7B3
S1135C00FD640000001000400000FF07F40A0020BB
S1135C10072803D88000184B1B589F46172029E0FB
S1135C20164A137D02210B431375002022E0144A07
S1135C30936902210B43936100201BE00F4A138AEE
S1135C4002210B431382002014E00D4A938A02219F
S1135C500B43938200200DE0084A137F02210B437B
S1135C60137710002A310222435C1342FCD1002036
S1135C7000E000207047C0467C9F000000100040F8
S1135C8000140040F0B5CE46474680B58FB00322DD
S1135C904B4B9A604B4A53681E218B4318390B4374
S1135CA053600AA8002303708022120242608370AA
S1135CB00122C2708372C372037343738373023904
S1135CC0417043720272404B984705203F4B9847FE
S1135CD03F490122CB681A42FCD03E4B1A7D8021F9
S1135CE00A431A7500225A751A009369002BFCD1D5
